:020000040800F2
:10000000700C0120C9120008D1120008D312000898
:10001000D5120008D7120008D9120008000000000D
:10002000000000000000000000000000DB120008DB
:10003000DD12000800000000DF1200089105000832
:10004000E3120008E3120008E3120008E3120008BC
:10005000E3120008E3120008E3120008E3120008AC
:10006000E3120008E3120008E3120008E31200089C
:10007000E3120008E3120008E3120008E31200088C
:10008000E3120008E3120008E3120008E31200087C
:10009000E3120008E3120008E3120008E31200086C
:1000A000E3120008E3120008E3120008E31200085C
:1000B000E3120008E3120008E3120008E31200084C
:1000C000E3120008E3120008E3120008E31200083C
:1000D000E3120008E3120008E3120008E31200082C
:1000E000E3120008E3120008E3120008E31200081C
:1000F000E3120008E3120008E3120008E31200080C
:10010000E3120008E3120008E3120008E3120008FB
:10011000E3120008E3120008E3120008E3120008EB
:10012000E3120008E3120008E3120008E3120008DB
:10013000E3120008E3120008E3120008E3120008CB
:10014000E3120008E3120008E3120008E3120008BB
:10015000E3120008E312000800000000E3120008A8
:10016000E3120008E3120008000000000000000095
:10017000E3120008E3120008E31200080000000088
:1001800000000000E3120008E3120008E312000878
:10019000E312000800000000000000000000000062
:1001A000000000000000000000000000E312000852
:1001B000E312000800000000E31200080000000045
:1001C000000000000000000000000000000000002F
:1001D0000000000000000000E3120008E312000825
:1001E000E3120008E3120008E3120008E31200081B
:1001F000E3120008E3120008E3120008E31200080B
:10020000E3120008E3120008E312000800F002F80D
:1002100000F03CF80AA090E8000C82448344AAF164
:100220000107DA4501D100F031F8AFF2090EBAE862
:100230000F0013F0010F18BFFB1A43F0010318471A
:10024000F813000018140000103A24BF78C878C1D1
:10025000FAD8520724BF30C830C144BF04680C60CC
:10026000704700000023002400250026103A28BF14
:1002700078C1FBD8520728BF30C148BF0B60704718
:100280001FB501F0B5F91FBD10B510BD01F06AF939
:100290001146FFF7F5FF00F009F801F09CF903B4EF
:1002A000FFF7F2FF03BC00F0BCF8000000F006F915
:1002B00000F0D0F800F06EF900F00CF800F019FA38
:1002C00002A001F011F900F019FAFCE7544553546B
:1002D000000000002DE9FC41684600F087FD594F01
:1002E00007220921384600F0BAFD012502268DF8C3
:1002F000066000248DF8054068028DF807500090D4
:100300008DF804406946384600F03EFD07220A2178
:10031000384600F0A4FD8DF806608DF80540A8026F
:100320008DF8075000908DF804406946384600F07B
:100330002BFD454C002301224FF4E131204600F013
:10034000F9FD0121204600F052FE0121204600F077
:1003500053FE0021204600F02BFE0021204600F035
:10036000D3FE0121204600F03DFEBDE8FC817CB5B6
:10037000684600F03BFD334E07220221304600F074
:100380006EFD02248DF8064000258DF805500420EE
:100390008DF8074000908DF804506946304600F013
:1003A000F3FC07220321304600F059FD8DF806408A
:1003B0008DF8055008208DF8074000908DF8045006
:1003C0006946304600F0E0FC204C002301224FF447
:1003D000E131204600F0AEFD0121204600F007FE8D
:1003E0000121204600F008FE0021204600F0E0FD3B
:1003F0000121204600F027FE0021204600F084FE67
:1004000001221349204600F00FFE11490122491E26
:10041000204600F009FE0121204600F0E3FD7CBDEE
:100420007047704770B5084D0446C1B2284600F0C9
:100430003FFE4021284600F087FE0028F9D02046E4
:1004400070BD000000000240001001400044004068
:1004500005000C001FB5684600F055FB0198C40864
:10046000002000F01EFF4FF47A70B4FBF0F14FF063
:10047000E020491E416100218161016941F00301D1
:1004800001611FBD0C480168491C016070470A48A2
:100490000068704770B50446FFF7F9FF0546601C19
:1004A00000D0641CFFF7F3FF401BA042FAD370BDDD
:1004B00010B5FFF7E7FF10BD0400012010B50121C2
:1004C0004FF4401000F0EBF901212D4800F0E7F95E
:1004D0002B480121401C00F0E2F929480121801C31
:1004E00000F0DDF926480121C01C00F0D8F92448AD
:1004F0000121801D00F0D3F921480121153000F0C1
:10050000CEF901211F4800F0CAF91E480121083028
:1005100000F0C5F90121880500F0C1F901211A4850
:1005200000F0BDF918480121401C00F0B8F9164848
:100530000121801C00F0B3F913480121001D00F0D7
:10054000AEF9114801210D3000F0A9F90E48012142
:10055000103000F0A4F90C480121153000F09FF98B
:1005600001210A4800F09BF908480121001D00F014
:1005700096F906480121BDE810400A3000F08FB915
:100580000100300007003400010040000400440076
:10059000FFF78EBF2DE9FC5F684600F027FC0025C1
:1005A0000720DFF888A18DF80650012400908DF80F
:1005B00005406946504600F0E7FB4FF481608DF836
:1005C000065000908DF805406946594800F0DCFB64
:1005D0004020DFF860818DF8065000908DF80540CE
:1005E0006946404600F0D0FBE003DFF84CB18DF8DF
:1005F000065000908DF805406946584600F0C4FB4F
:1006000040F2F311584600F011FC3021404600F052
:100610000DFC4FF478463146504600F007FCDFF8F9
:100620001C912103484600F0FFFB40F64307394682
:100630003F4800F0FBFB8021484600F0F7FB8DF8B7
:1006400007408DF8045040F2E3108DF8064000900A
:100650008DF805406946584600F096FB02208DF85B
:1006600007008DF8045010208DF8064000908DF89A
:1006700005406946584600F087FB8DF807408DF825
:10068000045030208DF8064000908DF805406946F2
:10069000404600F079FB8DF807408DF804508DF846
:1006A000064000968DF805406946504600F06CFB08
:1006B0008DF807404FF484508DF8045000908DF869
:1006C00006406946484600F05FFB8DF807408DF80C
:1006D00004508DF8064000978DF80540694614488F
:1006E00000F052FBBDE8FC9F4FF40061104800F0A1
:1006F0009BBB4FF400610E4800F098BB70B510A092
:1007000000F0F2FE0A4D4FF400642146284600F046
:100710008BFB4FF4FA70FFF7BDFE0CA000F0E4FE77
:1007200021462846BDE8704000F080BB0010024022
:10073000000C024000080240000002400004024099
:100740004C45445F4F6E0D0A000000004C45445F6D
:100750004F66660D0A000000FE48016841F0010185
:10076000016001688907FCD5FA4908310A6822F05E
:1007700003020A600A6812F00C0FFBD10268F64B04
:100780001A40026000200860F24AF449121D11600C
:10079000F049A0310860EF494FF41F000C310860A8
:1007A0007047EC4970310A6860F382020A60704752
:1007B000E8490A6860F392420A60704701460020E7
:1007C00001F01F0301229A40E54B03EB1141D1F8E0
:1007D00000188A4300D1012070470246DD490020FD
:1007E0000C31A2F54022082A0CD2DFE802F0040CFA
:1007F000141A200B0B260A68D20703D00968C90512
:1008000006E0012070470A689207FBD50968890550
:100810000029F6DB70470A685207FBD509684905CD
:10082000F6E70A681207F5D509680905F0E70A68CE
:10083000D206EFD50968C904EAE709680906E9D5CF
:10084000C44909680903E3E730B500244FF4405573
:1008500000E0641C1120FFF7B1FF012801D0AC4279
:10086000F7D31120FFF7AAFF012800D0002030BDE8
:10087000B8490A6860F387020A607047B549A03139
:100880000A6822F0FF025A320A60B24A136860F323
:100890000F231360086820F0FF000860704710B550
:1008A000AF4C00F01F0301229A4004EB10400129D5
:1008B000D0F8001803D09143C0F8001810BD1143C0
:1008C000FAE710B5A64C00F01F0301229A4004EB92
:1008D00010400129D0F8001803D09143C0F8001847
:1008E00010BD1143FAE710B59D4C00F01F03012223
:1008F0009A4004EB10400129D0F8001803D091432E
:10090000C0F8001810BD1143FAE7924A052810D22A
:10091000DFE800F003070B101300106861F300001C
:1009200006E0106861F3104002E0106861F318609F
:1009300010607047874A7032EFE7864A7432ECE7FE
:10094000884A811A90420ED00ADC8749A0F54020DF
:10095000082811D2DFE800F01115191D211010250B
:10096000891E052908D880486830016841F08071E7
:1009700001600168C901FCD47047086840F4803008
:1009800012E0086840F400300EE0086840F480206F
:100990000AE0086840F4002006E0086840F480108F
:1009A00002E0086840F40000086070476E490309DF
:1009B000091F0A6863F314420A606B4964310A68CC
:1009C00060F309220A607047674964310A6860F37E
:1009D000CF320A6070476449091F0A6860F3071242
:1009E0000A6070476049091F0A6860F38C220A6038
:1009F00070475D49091F0A6860F34F320A6070470B
:100A0000594998310A6860F30F320A6070475149BA
:100A10000A6860F3D3420A607047534964310A6838
:100A200060F310420A6070474F4998310128086806
:100A300003D020F030000860704740F03000FAE743
:100A4000494994310A6860F30C320A60704700B576
:100A500003460120FFF7F4FF43489430016863F335
:100A60008E31016000BD10B50446012801D1FFF7A9
:100A7000EEFF3D489430016864F34D31016010BDD4
:100A8000394998310A6860F308220A60704730B526
:100A900028B9354C9434256845F4805525602D4C93
:100AA000241D256860F396552560206861F38E103B
:100AB0002060206862F303002060206863F3124026
:100AC000206030BD2849091F0A6860F301020A60EE
:100AD00000BF00BF00BF00BF00BF00BF00BF00BF1E
:100AE00000BF00BF00BF00BF00BF00BF00BF00BF0E
:100AF00000BF00BF00BF00BF70471B48001F006859
:100B0000C0F38100704770B50446FFF7F6FF174940
:100B100020B101280DD002280BD13AE012489430C0
:100B20000268520405D50068C00402D51048206050
:100B300000E021600C49091F08680E4AC0F3031049
:100B4000125C2068D04060600A680A4BC2F38222BF
:100B5000103B11E000380240FFFFF2FE02300300BC
:100B600000300240180074000C38024000127A0075
:100B7000006CDC02101600089A5C20FA02F2E260B7
:100B8000096803F10802C1F34231515CC840A0601A
:100B900070BD594802680268C2F388130268006891
:100BA00002F00F02554EC0F30240305C12FB00F21F
:100BB000A1FB0301002300F020FCB8E74E49091D0A
:100BC0000A6860F356520A6070474B49091D1028A5
:100BD0000A6802D260F39F7209E022F0404202F1FB
:100BE00080420A6044499C310A6860F313420A60FB
:100BF000704710B5404B404C1B1D9C3400281868B2
:100C000007D061F3DD601860206862F31F70206018
:100C100010BD61F31A601860206862F31B60F6E78C
:100C20003549A0310A6860F349220A607047324AA8
:100C300008320129116802D08143116070470143D5
:100C4000FBE72DE9F04F91469A464FF47A72B1FBDB
:100C5000F2F30024DDF824B04FF0FF3627464FF4BE
:100C6000FA5C012043F2B062BCFBF0F1A1F5FA613D
:100C7000914202D804B904460746401C80B20F28AE
:100C8000F2D935E0DFF878E0DFF8788005211F2021
:100C90000CFB00F2B2FBF4F202EB0E0545451CD250
:100CA00001258D40B2FBF5F2934208D1A9F800402E
:100CB000AAF80000ABF800100120BDE8F08F9A42BE
:100CC00001D9D51A00E09D1AB54206D2A9F8004014
:100CD000AAF800002E46ABF80010401C80B2B0F518
:100CE000FA7FD5D9491E09B20029D0DA641CA4B212
:100CF000BC42C7D90020E0E704380240FA150008DA
:100D0000E05EF8FF61AE0A00614910B5884202D189
:100D10000121C4002EE05F49884202D101215E4CCE
:100D200028E05E49884203D15B4C0121641C21E02C
:100D30005B49884203D1584C0121A41C1AE059494F
:100D4000884203D1544C0121E41C13E056498842E7
:100D500003D1514C0121241D0CE05449884203D198
:100D60004D4C0121641D05E0514988420BD14A4C8C
:100D70000121A41D2046FFF7A4FD2046BDE8104038
:100D80000021FFF79EBD10BDF0B50B8800229BB27D
:100D900029E0DC0724D0066854000325A540AE43B3
:100DA00006608E790768A6403E43066046680127C4
:100DB0009740BE43466046680F7997403E43466081
:100DC0008668AE438660CE798768A6403E438660DB
:100DD000C668AE43C6604D79A540C4682543C5606A
:100DE0005B08521C92B2002BD3D1F0BD4FF6FF71BD
:100DF000016000218171017141710121C171704750
:100E0000024600201269914300D101207047006919
:100E100080B270470246002052690A4200D0012089
:100E20007047406980B27047816170478162704746
:100E30000AB181617047816270474161704741F436
:100E40008032C261C161C261C169C0697047002A54
:100E5000C26B01D00A4300E08A43C26370474B076C
:100E600010B5DB0E9A40CC084FF00F0101FA03F1E8
:100E700006D0436A8B434362416A1143416210BD0D
:100E8000036A8B430362016A1143016210BD0000D3
:100E9000000002400004024001001000000802406F
:100EA000000C0240001002400014024000180240F2
:100EB000001C0240B54910B5884202D10121B44C52
:100EC0002EE0B449884202D10121B34C28E0B34955
:100ED000884203D1B04C0121641C21E0B049884212
:100EE00003D1AD4C0121A41C1AE0AE49884203D1C4
:100EF000A94C0121E41C13E0AB49884203D1A44C66
:100F00000121641C0CE0A949884203D1A24C0121B3
:100F10000D3405E0A64988420BD19F4C01210E34C7
:100F20002046FFF7CEFC2046BDE810400021FFF729
:100F3000C8BC10BD2DE9FF4104461E4615460F46AC
:100F40006846FFF7E0FD9148844202D0964884420B
:100F500001D1029800E003980A2100EB80004000D4
:100F6000B0FBF7F0B0FBF1F201FB1202B0FBF1F0C5
:100F7000052A00D3401CA16860F30F01A1607DB178
:100F8000E068012D20F080500DD0E060E06840F472
:100F90008050E060206966F30D302061BDE8FF817C
:100FA000E06840F08050E060E06820F48050F0E7B6
:100FB00059B1012912D002290FD1C16841F4007141
:100FC000C160C16841F4806106E0C16821F400712C
:100FD000C160C16821F48061C1607047C16821F4BB
:100FE0000071EDE7C26861F34D32C2607047C268BC
:100FF00061F3C302C2607047C26861F38202C260DB
:10100000704710B5046961F38A240461016962F3D1
:1010100049210161016963F30821016110BD026981
:1010200061F3CB220261704710B501F01F0400EBA1
:1010300011400123A3400168012A02D099430160B5
:1010400010BD1943FBE7426961F3C7124261704763
:10105000426961F38612426170470269D30601F06A
:101060000F0207D4016962F303010161016921F0F4
:10107000704107E0036962F3030303610A09016930
:1010800062F31F7101617047C26861F3CB22C260D5
:101090007047C26861F34102C2607047026961F340
:1010A000451202617047026961F38E320261704736
:1010B000C1F3080141607047C16841F00101C1609E
:1010C0007047826961F30F2282617047826961F320
:1010D000070282617047426961F3451242617047BD
:1010E000426961F3041242617047426961F3C302CD
:1010F00042617047426961F341024261704742694F
:1011000061F382024261704769B101290FD002295F
:1011100016D0032913D1416941F4807141614169BD
:1011200041F400710AE0416921F4807102E04169F3
:1011300041F480714161416921F40071416170475E
:10114000416921F48071E9E70068084000D001207E
:101150007047C36861F35953C360C16862F31441B7
:10116000C1607047026961F3CF3202617047026962
:1011700061F3041202617047426961F3CF32426148
:101180007047426961F38E3242617047001001403E
:1011900004002400004400401100200000480040EA
:1011A000004C004000500040001401400078004016
:1011B000007C0040BFF34F8F40480168404A01F473
:1011C000E06111430160BFF34F8F00BFFDE770B5D1
:1011D0003A4B1B68C3F30223C3F10705042D00D962
:1011E00004251C1D072C01D2002300E0DB1E012674
:1011F00006FA05F4641E0C409C4006FA03F1491EF1
:1012000011400C43002806DB00F1E0214FEA0412F4
:1012100081F8002407E000F00F0202F1E0224FEA1B
:10122000041182F8141D0BDB00F01F014FEA50106F
:101230004FEA800000F1E02006FA01F6C0F80061F4
:1012400070BD00280DDB00F01F0201219140400914
:10125000800000F1E020C0F88011BFF34F8FBFF392
:101260006F8F7047154A00F0070110684FF6FF03B3
:10127000184040EA01201249091F084310607047D6
:10128000104A114001430D48001F016070470B4A8E
:10129000121D0029116801D0014300E08143116053
:1012A00070474FF0E0210428086903D020F00400C3
:1012B0000861704740F00400FAE700000CED00E020
:1012C0000400FA0580FFFF1F0948804709480047CE
:1012D000FEE7FEE7FEE7FEE7FEE7FEE7FEE7FEE7E6
:1012E000FEE7FEE704480549054A064B7047000043
:1012F000091300080D02000870000120700C012085
:1013000070040120700401203348016841F4700129
:1013100001603248016841F00101016001688907FC
:10132000FCD52E4908310A6822F003020A600A68D7
:1013300012F00C0FFBD10268294B1A40026000200A
:101340000860264A2749121D11602449A03108600F
:1013500022494FF41F000C3108601F4950068039A4
:101360000860704770B5FFF7C8FB1F491F4C20B1DC
:1013700001280DD002280BD116E01848A0300268D1
:10138000520405D50068C00402D51948206000E069
:1013900021601248083000681649C0F30310085C49
:1013A0002168C140216070BD0C48001D02680268C0
:1013B000C2F388130268006802F00F020D4EC0F3FA
:1013C0000240B61F305C12FB00F2A1FB03010023B8
:1013D00000F013F8DAE7000088ED00E00038024082
:1013E000FFFFF2FE0230030000127A000800012025
:1013F000006CDC0226160008704753EA020C00F06D
:1014000069802DE9F04B4FF00006002B1FBFB3FAA7
:1014100083F503FA05F424FA05F65E4012BF16437D
:10142000B2FA82F502FA05F4C5F120051EBF22FAD0
:1014300005FC44EA0C04203556EA044C4FEA1444F7
:1014400018BF641C4FF000084FF00009904271EB88
:10145000030C39D3002919BFB1FA81F701FA07F655
:10146000B0FA80F700FA07F6C7F120071EBF20FA8E
:1014700007FC46EA0C062037B6FBF4FCA7EB050791
:10148000103F07F01F0BCBF120060CFA0BFB2CFAD8
:1014900006F644BFB3460026202FA4BF5E464FF099
:1014A000000B5BEA060C08BF4FF0010B19EB0B09B0
:1014B000ABFB027C48EB0608C01B06FB02CC0BFB17
:1014C00003CC71EB0C01C1E70B460246414648468E
:1014D000BDE8F08B13B54FF000004FF00001AFF303
:1014E0000080BDE81C4070470FB4044910B503AA42
:1014F000029800F009F810BC5DF814FB0000012010
:101500007047704770477047074B70B50D467B4476
:1015100000F011F80446284600F020F810B14FF012
:10152000FF3070BD204670BD13EFFFFF01694A1CFC
:1015300002610878704700B58FB0CDE90131002114
:10154000059105497944CDE903101146684600F03C
:101550002EF80FB000BD0000E5FFFFFF007B00F09C
:1015600080007047754600F03FF8AE4605006946BA
:10157000534620F00700854618B020B5FFF7B2FEAD
:10158000BDE820404FF000064FF000074FF0000884
:101590004FF0000B21F00701AC46ACE8C009ACE805
:1015A000C009ACE8C009ACE8C0098D4670472DE918
:1015B000F04106460024D6E90170F56880463046C1
:1015C00003E04146B847641C3046A8470028F8D1DC
:1015D0002046BDE8F08110B50446AFF300802046F8
:1015E000BDE81040FEF75BBE004870470C000120CC
:1015F0004FF04070E1EE100A70470102040810201D
:1016000000000000010203040000000001020304C6
:1016100000000000000000000102030406070809A2
:101620000102040810200000000000000000010278
:1016300003040607080900005816000800000120EE
:101640000C00000048020008641600080C0001208D
:10165000640C0000640200080000000000000000AC
:0416600000127A00FA
:040000050800020DE0
:00000001FF
